{
  "contractName": "BudgetTracker",
  "abi": [
    {
      "inputs": [],
      "stateMutability": "nonpayable",
      "type": "constructor"
    },
    {
      "inputs": [],
      "name": "admin",
      "outputs": [
        {
          "internalType": "address",
          "name": "",
          "type": "address"
        }
      ],
      "stateMutability": "view",
      "type": "function"
    },
    {
      "inputs": [
        {
          "internalType": "address",
          "name": "",
          "type": "address"
        },
        {
          "internalType": "uint256",
          "name": "",
          "type": "uint256"
        }
      ],
      "name": "budgets",
      "outputs": [
        {
          "internalType": "uint256",
          "name": "allocatedAmount",
          "type": "uint256"
        },
        {
          "internalType": "uint256",
          "name": "spentAmount",
          "type": "uint256"
        },
        {
          "internalType": "string",
          "name": "department",
          "type": "string"
        },
        {
          "internalType": "uint256",
          "name": "timestamp",
          "type": "uint256"
        }
      ],
      "stateMutability": "view",
      "type": "function"
    },
    {
      "inputs": [
        {
          "internalType": "address",
          "name": "departmentAddress",
          "type": "address"
        },
        {
          "internalType": "uint256",
          "name": "amount",
          "type": "uint256"
        },
        {
          "internalType": "string",
          "name": "departmentName",
          "type": "string"
        }
      ],
      "name": "allocateBudget",
      "outputs": [],
      "stateMutability": "nonpayable",
      "type": "function"
    },
    {
      "inputs": [
        {
          "internalType": "address",
          "name": "departmentAddress",
          "type": "address"
        },
        {
          "internalType": "uint256",
          "name": "amount",
          "type": "uint256"
        }
      ],
      "name": "recordSpending",
      "outputs": [],
      "stateMutability": "nonpayable",
      "type": "function"
    },
    {
      "inputs": [
        {
          "internalType": "address",
          "name": "departmentAddress",
          "type": "address"
        }
      ],
      "name": "viewBudget",
      "outputs": [
        {
          "internalType": "uint256",
          "name": "allocated",
          "type": "uint256"
        },
        {
          "internalType": "uint256",
          "name": "spent",
          "type": "uint256"
        }
      ],
      "stateMutability": "view",
      "type": "function"
    }
  ],
  "bytecode": "0x608060405234801561000f575f80fd5b503360015f6101000a81548173ffffffffffffffffffffffffffffffffffffffff021916908373ffffffffffffffffffffffffffffffffffffffff160217905550610f6a8061005d5f395ff3fe608060405234801561000f575f80fd5b5060043610610055575f3560e01c806334dfbfee1461005957806382a8a75514610075578063cb192c78146100a8578063f851a440146100c4578063fa97b28a146100e2575b5f80fd5b610073600480360381019061006e919061068c565b610113565b005b61008f600480360381019061008a919061068c565b610311565b60405161009f9493929190610763565b60405180910390f35b6100c260048036038101906100bd91906108d9565b6103dc565b005b6100cc610527565b6040516100d99190610954565b60405180910390f35b6100fc60048036038101906100f7919061096d565b61054c565b60405161010a929190610998565b60405180910390f35b60015f9054906101000a900473ffffffffffffffffffffffffffffffffffffffff1673ffffffffffffffffffffffffffffffffffffffff163373ffffffffffffffffffffffffffffffffffffffff16146101a2576040517f08c379a000000000000000000000000000000000000000000000000000000000815260040161019990610a09565b60405180910390fd5b5f81116101e4576040517f08c379a00000000000000000000000000000000000000000000000000000000081526004016101db90610a97565b60405180910390fd5b5f805f8473ffffffffffffffffffffffffffffffffffffffff1673ffffffffffffffffffffffffffffffffffffffff1681526020019081526020015f2090505f818054905090505f811161026d576040517f08c379a000000000000000000000000000000000000000000000000000000000815260040161026490610b25565b60405180910390fd5b5f8260018361027c9190610b70565b8154811061028d5761028c610ba3565b5b905f5260205f20906004020190508381600101546102ab9190610bd0565b815f015410156102f0576040517f08c379a00000000000000000000000000000000000000000000000000000000081526004016102e790610c4d565b60405180910390fd5b83816001015f8282546103039190610bd0565b925050819055505050505050565b5f602052815f5260405f208181548110610329575f80fd5b905f5260205f2090600402015f9150915050805f01549080600101549080600201805461035590610c98565b80601f016020809104026020016040519081016040528092919081815260200182805461038190610c98565b80156103cc5780601f106103a3576101008083540402835291602001916103cc565b820191905f5260205f20905b8154815290600101906020018083116103af57829003601f168201915b5050505050908060030154905084565b60015f9054906101000a900473ffffffffffffffffffffffffffffffffffffffff1673ffffffffffffffffffffffffffffffffffffffff163373ffffffffffffffffffffffffffffffffffffffff161461046b576040517f08c379a000000000000000000000000000000000000000000000000000000000815260040161046290610a09565b60405180910390fd5b5f808473ffffffffffffffffffffffffffffffffffffffff1673ffffffffffffffffffffffffffffffffffffffff1681526020019081526020015f2060405180608001604052808481526020015f815260200183815260200142815250908060018154018082558091505060019003905f5260205f2090600402015f909190919091505f820151815f01556020820151816001015560408201518160020190816105159190610e65565b50606082015181600301555050505050565b60015f9054906101000a900473ffffffffffffffffffffffffffffffffffffffff1681565b5f805f805f8573ffffffffffffffffffffffffffffffffffffffff1673ffffffffffffffffffffffffffffffffffffffff1681526020019081526020015f2090505f818054905090505f8111156105e0575f826001836105ac9190610b70565b815481106105bd576105bc610ba3565b5b905f5260205f2090600402019050805f01548160010154945094505050506105e9565b5f809350935050505b915091565b5f604051905090565b5f80fd5b5f80fd5b5f73ffffffffffffffffffffffffffffffffffffffff82169050919050565b5f610628826105ff565b9050919050565b6106388161061e565b8114610642575f80fd5b50565b5f813590506106538161062f565b92915050565b5f819050919050565b61066b81610659565b8114610675575f80fd5b50565b5f8135905061068681610662565b92915050565b5f80604083850312156106a2576106a16105f7565b5b5f6106af85828601610645565b92505060206106c085828601610678565b9150509250929050565b6106d381610659565b82525050565b5f81519050919050565b5f82825260208201905092915050565b5f5b838110156107105780820151818401526020810190506106f5565b5f8484015250505050565b5f601f19601f8301169050919050565b5f610735826106d9565b61073f81856106e3565b935061074f8185602086016106f3565b6107588161071b565b840191505092915050565b5f6080820190506107765f8301876106ca565b61078360208301866106ca565b8181036040830152610795818561072b565b90506107a460608301846106ca565b95945050505050565b5f80fd5b5f80fd5b7f4e487b71000000000000000000000000000000000000000000000000000000005f52604160045260245ffd5b6107eb8261071b565b810181811067ffffffffffffffff8211171561080a576108096107b5565b5b80604052505050565b5f61081c6105ee565b905061082882826107e2565b919050565b5f67ffffffffffffffff821115610847576108466107b5565b5b6108508261071b565b9050602081019050919050565b828183375f83830152505050565b5f61087d6108788461082d565b610813565b905082815260208101848484011115610899576108986107b1565b5b6108a484828561085d565b509392505050565b5f82601f8301126108c0576108bf6107ad565b5b81356108d084826020860161086b565b91505092915050565b5f805f606084860312156108f0576108ef6105f7565b5b5f6108fd86828701610645565b935050602061090e86828701610678565b925050604084013567ffffffffffffffff81111561092f5761092e6105fb565b5b61093b868287016108ac565b9150509250925092565b61094e8161061e565b82525050565b5f6020820190506109675f830184610945565b92915050565b5f60208284031215610982576109816105f7565b5b5f61098f84828501610645565b91505092915050565b5f6040820190506109ab5f8301856106ca565b6109b860208301846106ca565b9392505050565b7f4f6e6c792061646d696e2063616e2061646420627564676574730000000000005f82015250565b5f6109f3601a836106e3565b91506109fe826109bf565b602082019050919050565b5f6020820190508181035f830152610a20816109e7565b9050919050565b7f5370656e64696e6720616d6f756e74206d7573742062652067726561746572205f8201527f7468616e207a65726f0000000000000000000000000000000000000000000000602082015250565b5f610a816029836106e3565b9150610a8c82610a27565b604082019050919050565b5f6020820190508181035f830152610aae81610a75565b9050919050565b7f4e6f2062756467657420616c6c6f636174656420666f722074686973206465705f8201527f6172746d656e7400000000000000000000000000000000000000000000000000602082015250565b5f610b0f6027836106e3565b9150610b1a82610ab5565b604082019050919050565b5f6020820190508181035f830152610b3c81610b03565b9050919050565b7f4e487b71000000000000000000000000000000000000000000000000000000005f52601160045260245ffd5b5f610b7a82610659565b9150610b8583610659565b9250828203905081811115610b9d57610b9c610b43565b5b92915050565b7f4e487b71000000000000000000000000000000000000000000000000000000005f52603260045260245ffd5b5f610bda82610659565b9150610be583610659565b9250828201905080821115610bfd57610bfc610b43565b5b92915050565b7f4578636565647320616c6c6f63617465642062756467657400000000000000005f82015250565b5f610c376018836106e3565b9150610c4282610c03565b602082019050919050565b5f6020820190508181035f830152610c6481610c2b565b9050919050565b7f4e487b71000000000000000000000000000000000000000000000000000000005f52602260045260245ffd5b5f6002820490506001821680610caf57607f821691505b602082108103610cc257610cc1610c6b565b5b50919050565b5f819050815f5260205f209050919050565b5f6020601f8301049050919050565b5f82821b905092915050565b5f60088302610d247fffffffffffffffffffffffffffffffffffffffffffffffffffffffffffffffff82610ce9565b610d2e8683610ce9565b95508019841693508086168417925050509392505050565b5f819050919050565b5f610d69610d64610d5f84610659565b610d46565b610659565b9050919050565b5f819050919050565b610d8283610d4f565b610d96610d8e82610d70565b848454610cf5565b825550505050565b5f90565b610daa610d9e565b610db5818484610d79565b505050565b5b81811015610dd857610dcd5f82610da2565b600181019050610dbb565b5050565b601f821115610e1d57610dee81610cc8565b610df784610cda565b81016020851015610e06578190505b610e1a610e1285610cda565b830182610dba565b50505b505050565b5f82821c905092915050565b5f610e3d5f1984600802610e22565b1980831691505092915050565b5f610e558383610e2e565b9150826002028217905092915050565b610e6e826106d9565b67ffffffffffffffff811115610e8757610e866107b5565b5b610e918254610c98565b610e9c828285610ddc565b5f60209050601f831160018114610ecd575f8415610ebb578287015190505b610ec58582610e4a565b865550610f2c565b601f198416610edb86610cc8565b5f5b82811015610f0257848901518255600182019150602085019450602081019050610edd565b86831015610f1f5784890151610f1b601f891682610e2e565b8355505b6001600288020188555050505b50505050505056fea2646970667358221220ad25f7ad7b722851d8e737628cd07654c9c3313364d6ce0c353fc50671c07c2164736f6c63430008150033",
  "immutableReferences": {},
  "source": "// SPDX-License-Identifier: MIT\r\npragma solidity ^0.8.0;\r\n\r\ncontract BudgetTracker {\r\n    struct Budget {\r\n        uint256 allocatedAmount;\r\n        uint256 spentAmount;\r\n        string department;\r\n        uint256 timestamp;\r\n    }\r\n    \r\n    mapping(address => Budget[]) public budgets;\r\n    address public admin;\r\n    \r\n    modifier onlyAdmin() {\r\n        require(msg.sender == admin, \"Only admin can add budgets\");\r\n        _;\r\n    }\r\n\r\n    constructor() {\r\n        admin = msg.sender;\r\n    }\r\n\r\n    // Allocate a new budget to a department\r\n    function allocateBudget(address departmentAddress, uint256 amount, string memory departmentName) public onlyAdmin {\r\n        budgets[departmentAddress].push(Budget(amount, 0, departmentName, block.timestamp));\r\n    }\r\n\r\n    // Record spending for a department\r\n    function recordSpending(address departmentAddress, uint256 amount) public onlyAdmin {\r\n        require(amount > 0, \"Spending amount must be greater than zero\");\r\n        \r\n        Budget[] storage deptBudgets = budgets[departmentAddress];\r\n        uint256 budgetCount = deptBudgets.length;\r\n        \r\n        // Make sure there is an allocated budget for the department\r\n        require(budgetCount > 0, \"No budget allocated for this department\");\r\n        \r\n        Budget storage deptBudget = deptBudgets[budgetCount - 1];\r\n        require(deptBudget.allocatedAmount >= deptBudget.spentAmount + amount, \"Exceeds allocated budget\");\r\n        \r\n        deptBudget.spentAmount += amount;\r\n    }\r\n\r\n    // View budget for a department\r\n    function viewBudget(address departmentAddress) public view returns (uint256 allocated, uint256 spent) {\r\n        Budget[] storage deptBudgets = budgets[departmentAddress];\r\n        uint256 budgetCount = deptBudgets.length;\r\n        \r\n        if (budgetCount > 0) {\r\n            Budget storage deptBudget = deptBudgets[budgetCount - 1];\r\n            return (deptBudget.allocatedAmount, deptBudget.spentAmount);\r\n        } else {\r\n            return (0, 0);\r\n        }\r\n    }\r\n}\r\n",
  "sourcePath": "C:\\Users\\Princess Angel\\transparensee\\contracts\\BudgetTracker.sol",
  "compiler": {
    "name": "solc",
    "version": "0.8.21+commit.d9974bed.Emscripten.clang"
  },
  "schemaVersion": "3.4.16",
  "updatedAt": "2025-11-05T11:43:32.225Z",
  "devdoc": {
    "kind": "dev",
    "methods": {},
    "version": 1
  },
  "userdoc": {
    "kind": "user",
    "methods": {},
    "version": 1
  }
}