{
  "contractName": "BudgetTracker",
  "abi": [
    {
      "inputs": [],
      "stateMutability": "nonpayable",
      "type": "constructor"
    },
    {
      "anonymous": false,
      "inputs": [
        {
          "indexed": false,
          "internalType": "address",
          "name": "department",
          "type": "address"
        },
        {
          "indexed": false,
          "internalType": "uint256",
          "name": "amount",
          "type": "uint256"
        },
        {
          "indexed": false,
          "internalType": "string",
          "name": "purpose",
          "type": "string"
        }
      ],
      "name": "BudgetAllocated",
      "type": "event"
    },
    {
      "anonymous": false,
      "inputs": [
        {
          "indexed": false,
          "internalType": "address",
          "name": "wallet",
          "type": "address"
        },
        {
          "indexed": false,
          "internalType": "string",
          "name": "name",
          "type": "string"
        }
      ],
      "name": "DepartmentRegistered",
      "type": "event"
    },
    {
      "anonymous": false,
      "inputs": [
        {
          "indexed": false,
          "internalType": "address",
          "name": "department",
          "type": "address"
        },
        {
          "indexed": false,
          "internalType": "uint256",
          "name": "amount",
          "type": "uint256"
        },
        {
          "indexed": false,
          "internalType": "string",
          "name": "purpose",
          "type": "string"
        }
      ],
      "name": "SpendingRecorded",
      "type": "event"
    },
    {
      "inputs": [],
      "name": "admin",
      "outputs": [
        {
          "internalType": "address",
          "name": "",
          "type": "address"
        }
      ],
      "stateMutability": "view",
      "type": "function"
    },
    {
      "inputs": [
        {
          "internalType": "address",
          "name": "",
          "type": "address"
        },
        {
          "internalType": "uint256",
          "name": "",
          "type": "uint256"
        }
      ],
      "name": "budgets",
      "outputs": [
        {
          "internalType": "uint256",
          "name": "allocatedAmount",
          "type": "uint256"
        },
        {
          "internalType": "uint256",
          "name": "spentAmount",
          "type": "uint256"
        },
        {
          "internalType": "string",
          "name": "purpose",
          "type": "string"
        },
        {
          "internalType": "uint256",
          "name": "timestamp",
          "type": "uint256"
        }
      ],
      "stateMutability": "view",
      "type": "function"
    },
    {
      "inputs": [
        {
          "internalType": "address",
          "name": "",
          "type": "address"
        }
      ],
      "name": "departments",
      "outputs": [
        {
          "internalType": "string",
          "name": "name",
          "type": "string"
        },
        {
          "internalType": "address",
          "name": "wallet",
          "type": "address"
        }
      ],
      "stateMutability": "view",
      "type": "function"
    },
    {
      "inputs": [
        {
          "internalType": "address",
          "name": "_wallet",
          "type": "address"
        },
        {
          "internalType": "string",
          "name": "_name",
          "type": "string"
        }
      ],
      "name": "registerDepartment",
      "outputs": [],
      "stateMutability": "nonpayable",
      "type": "function"
    },
    {
      "inputs": [
        {
          "internalType": "address",
          "name": "department",
          "type": "address"
        },
        {
          "internalType": "uint256",
          "name": "amount",
          "type": "uint256"
        },
        {
          "internalType": "string",
          "name": "purpose",
          "type": "string"
        }
      ],
      "name": "allocateBudget",
      "outputs": [],
      "stateMutability": "nonpayable",
      "type": "function"
    },
    {
      "inputs": [
        {
          "internalType": "address",
          "name": "department",
          "type": "address"
        },
        {
          "internalType": "uint256",
          "name": "amount",
          "type": "uint256"
        },
        {
          "internalType": "string",
          "name": "purpose",
          "type": "string"
        }
      ],
      "name": "recordSpending",
      "outputs": [],
      "stateMutability": "nonpayable",
      "type": "function"
    },
    {
      "inputs": [
        {
          "internalType": "address",
          "name": "department",
          "type": "address"
        }
      ],
      "name": "viewBudget",
      "outputs": [
        {
          "internalType": "uint256",
          "name": "allocated",
          "type": "uint256"
        },
        {
          "internalType": "uint256",
          "name": "spent",
          "type": "uint256"
        },
        {
          "internalType": "string",
          "name": "purpose",
          "type": "string"
        }
      ],
      "stateMutability": "view",
      "type": "function"
    },
    {
      "inputs": [
        {
          "internalType": "address",
          "name": "department",
          "type": "address"
        }
      ],
      "name": "getBudgets",
      "outputs": [
        {
          "components": [
            {
              "internalType": "uint256",
              "name": "allocatedAmount",
              "type": "uint256"
            },
            {
              "internalType": "uint256",
              "name": "spentAmount",
              "type": "uint256"
            },
            {
              "internalType": "string",
              "name": "purpose",
              "type": "string"
            },
            {
              "internalType": "uint256",
              "name": "timestamp",
              "type": "uint256"
            }
          ],
          "internalType": "struct BudgetTracker.Budget[]",
          "name": "",
          "type": "tuple[]"
        }
      ],
      "stateMutability": "view",
      "type": "function"
    }
  ],
  "bytecode": "0x608060405234801561000f575f80fd5b50600280546001600160a01b03191633179055610de98061002f5f395ff3fe608060405234801561000f575f80fd5b5060043610610085575f3560e01c8063cb192c7811610058578063cb192c78146100fe578063e7452b4b14610111578063f851a44014610131578063fa97b28a1461015c575f80fd5b806330ace735146100895780634999cea51461009e5780636694dd38146100b157806382a8a755146100db575b5f80fd5b61009c610097366004610963565b61017e565b005b61009c6100ac3660046109ae565b610250565b6100c46100bf366004610a01565b6103c2565b6040516100d2929190610a64565b60405180910390f35b6100ee6100e9366004610a8d565b61046c565b6040516100d29493929190610ab5565b61009c61010c3660046109ae565b610538565b61012461011f366004610a01565b610618565b6040516100d29190610ae4565b600254610144906001600160a01b031681565b6040516001600160a01b0390911681526020016100d2565b61016f61016a366004610a01565b610737565b6040516100d293929190610b6e565b6002546001600160a01b031633146101b15760405162461bcd60e51b81526004016101a890610b95565b60405180910390fd5b6040805180820182528281526001600160a01b03841660208083018290525f91825281905291909120815181906101e89082610c52565b5060209190910151600190910180546001600160a01b0319166001600160a01b039092169190911790556040517fd3218b5f038252a28b1f3b7824d86312d71c3138c6db02dcff219bfcd0f6dc3f906102449084908490610d0e565b60405180910390a15050565b6002546001600160a01b0316331461027a5760405162461bcd60e51b81526004016101a890610b95565b6001600160a01b0383165f908152600160205260409020546102d45760405162461bcd60e51b8152602060048201526013602482015272139bc8189d5919d95d08185b1b1bd8d85d1959606a1b60448201526064016101a8565b6001600160a01b0383165f9081526001602081905260408220805490916102fa91610d4d565b8154811061030a5761030a610d66565b905f5260205f2090600402019050805f015483826001015461032c9190610d7a565b11156103685760405162461bcd60e51b815260206004820152600b60248201526a13dd995c88189d5919d95d60aa1b60448201526064016101a8565b82816001015f82825461037b9190610d7a565b90915550506040517fcd9012872f3a834053eb6dce2e511fcc2803ccb209956cdd61de2c60c74f531a906103b490869086908690610d8d565b60405180910390a150505050565b5f602081905290815260409020805481906103dc90610bcc565b80601f016020809104026020016040519081016040528092919081815260200182805461040890610bcc565b80156104535780601f1061042a57610100808354040283529160200191610453565b820191905f5260205f20905b81548152906001019060200180831161043657829003601f168201915b505050600190930154919250506001600160a01b031682565b6001602052815f5260405f208181548110610485575f80fd5b905f5260205f2090600402015f9150915050805f0154908060010154908060020180546104b190610bcc565b80601f01602080910402602001604051908101604052809291908181526020018280546104dd90610bcc565b80156105285780601f106104ff57610100808354040283529160200191610528565b820191905f5260205f20905b81548152906001019060200180831161050b57829003601f168201915b5050505050908060030154905084565b6002546001600160a01b031633146105625760405162461bcd60e51b81526004016101a890610b95565b6001600160a01b0383165f9081526001602081815260408084208151608081018352878152808401868152928101878152426060830152825480870184559287529390952085516004909202019081559051928101929092555160028201906105cb9082610c52565b506060820151816003015550507ff77e512bb3e48d017b80f248f40385e056f840378c24ff7dbdf0f68f329e286983838360405161060b93929190610d8d565b60405180910390a1505050565b6001600160a01b0381165f908152600160209081526040808320805482518185028101850190935280835260609492939192909184015b8282101561072c578382905f5260205f2090600402016040518060800160405290815f82015481526020016001820154815260200160028201805461069390610bcc565b80601f01602080910402602001604051908101604052809291908181526020018280546106bf90610bcc565b801561070a5780601f106106e15761010080835404028352916020019161070a565b820191905f5260205f20905b8154815290600101906020018083116106ed57829003601f168201915b505050505081526020016003820154815250508152602001906001019061064f565b505050509050919050565b6001600160a01b0381165f9081526001602052604081205481906060906107965760405162461bcd60e51b8152602060048201526013602482015272139bc8189d5919d95d08185b1b1bd8d85d1959606a1b60448201526064016101a8565b6001600160a01b0384165f9081526001602081905260408220805490916107bc91610d4d565b815481106107cc576107cc610d66565b905f5260205f2090600402016040518060800160405290815f82015481526020016001820154815260200160028201805461080690610bcc565b80601f016020809104026020016040519081016040528092919081815260200182805461083290610bcc565b801561087d5780601f106108545761010080835404028352916020019161087d565b820191905f5260205f20905b81548152906001019060200180831161086057829003601f168201915b5050509183525050600391909101546020918201528151908201516040909201519097919650945092505050565b80356001600160a01b03811681146108c1575f80fd5b919050565b634e487b7160e01b5f52604160045260245ffd5b5f82601f8301126108e9575f80fd5b813567ffffffffffffffff80821115610904576109046108c6565b604051601f8301601f19908116603f0116810190828211818310171561092c5761092c6108c6565b81604052838152866020858801011115610944575f80fd5b836020870160208301375f602085830101528094505050505092915050565b5f8060408385031215610974575f80fd5b61097d836108ab565b9150602083013567ffffffffffffffff811115610998575f80fd5b6109a4858286016108da565b9150509250929050565b5f805f606084860312156109c0575f80fd5b6109c9846108ab565b925060208401359150604084013567ffffffffffffffff8111156109eb575f80fd5b6109f7868287016108da565b9150509250925092565b5f60208284031215610a11575f80fd5b610a1a826108ab565b9392505050565b5f81518084525f5b81811015610a4557602081850181015186830182015201610a29565b505f602082860101526020601f19601f83011685010191505092915050565b604081525f610a766040830185610a21565b905060018060a01b03831660208301529392505050565b5f8060408385031215610a9e575f80fd5b610aa7836108ab565b946020939093013593505050565b848152836020820152608060408201525f610ad36080830185610a21565b905082606083015295945050505050565b5f6020808301818452808551808352604092508286019150828160051b8701018488015f5b83811015610b6057603f1989840301855281516080815185528882015189860152878201518189870152610b3f82870182610a21565b60609384015196909301959095525094870194925090860190600101610b09565b509098975050505050505050565b838152826020820152606060408201525f610b8c6060830184610a21565b95945050505050565b60208082526018908201527f4f6e6c792061646d696e2063616e2063616c6c20746869730000000000000000604082015260600190565b600181811c90821680610be057607f821691505b602082108103610bfe57634e487b7160e01b5f52602260045260245ffd5b50919050565b601f821115610c4d575f81815260208120601f850160051c81016020861015610c2a5750805b601f850160051c820191505b81811015610c4957828155600101610c36565b5050505b505050565b815167ffffffffffffffff811115610c6c57610c6c6108c6565b610c8081610c7a8454610bcc565b84610c04565b602080601f831160018114610cb3575f8415610c9c5750858301515b5f19600386901b1c1916600185901b178555610c49565b5f85815260208120601f198616915b82811015610ce157888601518255948401946001909101908401610cc2565b5085821015610cfe57878501515f19600388901b60f8161c191681555b5050505050600190811b01905550565b6001600160a01b03831681526040602082018190525f90610d3190830184610a21565b949350505050565b634e487b7160e01b5f52601160045260245ffd5b81810381811115610d6057610d60610d39565b92915050565b634e487b7160e01b5f52603260045260245ffd5b80820180821115610d6057610d60610d39565b60018060a01b0384168152826020820152606060408201525f610b8c6060830184610a2156fea264697066735822122062b4883380c46a41189e7d2321a6d3a9bc03fe34016564425f58e03a17f35cf164736f6c63430008150033",
  "immutableReferences": {},
  "source": "// SPDX-License-Identifier: MIT\r\npragma solidity ^0.8.0;\r\n\r\ncontract BudgetTracker {\r\n    struct Budget {\r\n        uint256 allocatedAmount;\r\n        uint256 spentAmount;\r\n        string purpose;\r\n        uint256 timestamp;\r\n    }\r\n\r\n    struct Department {\r\n        string name;\r\n        address wallet;\r\n    }\r\n\r\n    mapping(address => Department) public departments;\r\n    mapping(address => Budget[]) public budgets;\r\n\r\n    address public admin;\r\n\r\n    event DepartmentRegistered(address wallet, string name);\r\n    event BudgetAllocated(address department, uint256 amount, string purpose);\r\n    event SpendingRecorded(address department, uint256 amount, string purpose);\r\n\r\n    modifier onlyAdmin() {\r\n        require(msg.sender == admin, \"Only admin can call this\");\r\n        _;\r\n    }\r\n\r\n    constructor() {\r\n        admin = msg.sender;\r\n    }\r\n\r\n    // Register a government department\r\n    function registerDepartment(address _wallet, string memory _name) public onlyAdmin {\r\n        departments[_wallet] = Department(_name, _wallet);\r\n        emit DepartmentRegistered(_wallet, _name);\r\n    }\r\n\r\n    // Allocate a budget for a department\r\n    function allocateBudget(address department, uint256 amount, string memory purpose) public onlyAdmin {\r\n        budgets[department].push(Budget(amount, 0, purpose, block.timestamp));\r\n        emit BudgetAllocated(department, amount, purpose);\r\n    }\r\n\r\n    // Record spending\r\n    function recordSpending(address department, uint256 amount, string memory purpose) public onlyAdmin {\r\n        require(budgets[department].length > 0, \"No budget allocated\");\r\n\r\n        Budget storage latest = budgets[department][budgets[department].length - 1];\r\n        require(latest.spentAmount + amount <= latest.allocatedAmount, \"Over budget\");\r\n\r\n        latest.spentAmount += amount;\r\n        emit SpendingRecorded(department, amount, purpose);\r\n    }\r\n\r\n    // View latest budget\r\n    function viewBudget(address department) public view returns (uint256 allocated, uint256 spent, string memory purpose) {\r\n        require(budgets[department].length > 0, \"No budget allocated\");\r\n        Budget memory b = budgets[department][budgets[department].length - 1];\r\n        return (b.allocatedAmount, b.spentAmount, b.purpose);\r\n    }\r\n\r\n    // Get all budgets for transparency\r\n    function getBudgets(address department) public view returns (Budget[] memory) {\r\n        return budgets[department];\r\n    }\r\n}\r\n",
  "sourcePath": "C:\\Users\\Princess Angel\\transparensee\\contracts\\BudgetTracker.sol",
  "compiler": {
    "name": "solc",
    "version": "0.8.21+commit.d9974bed.Emscripten.clang"
  },
  "schemaVersion": "3.4.16",
  "updatedAt": "2025-11-06T04:36:52.861Z",
  "devdoc": {
    "kind": "dev",
    "methods": {},
    "version": 1
  },
  "userdoc": {
    "kind": "user",
    "methods": {},
    "version": 1
  }
}